:100000000C94F3020C9410030C9410030C94100342
:100010000C9410030C9410030C9410030C94100314
:100020000C9410030C9410030C9410030C94120302
:100030000C9410030C9410030C9410030C941003F4
:100040000C9410030C9410030C9410030C941003E4
:100050000C9410030C9410030C9410030C941003D4
:100060000C9410030C94100307634236B79BD8A777
:100070001A39685618AEBAAB558C1D3CB7CC5763CD
:10008000BD6DEDFD753EF6177231BF000000803F7B
:1000900008000000BE922449123EABAAAA2ABECD97
:1000A000CCCC4C3E00000080BEABAAAAAA3E000009
:1000B0000000BF000000803F000000000008417801
:1000C000D3BB4387D1133D190E3CC3BD4282AD2B38
:1000D0003E68EC8276BED98FE1A93E4C80EFFFBE30
:1000E00001C4FF7F3F000000000000000000003E50
:1000F0005B4F5B3E3E6B4F6B3E1C3E7C3E1C183C98
:100100007E3C181C577D571C1C5E7F5E1C00183CF3
:100110001800FFE7C3E7FF0018241800FFE7DBE73C
:10012000FF30483A060E2629792926407F05050723
:10013000407F05253F5A3CE73C5A7F3E1C1C08087F
:100140001C1C3E7F14227F22145F5F005F5F060944
:100150007F017F006689956A606060606094A2FF9D
:10016000A29408047E040810207E201008082A1C8F
:1001700008081C2A08081E101010100C1E0C1E0C5B
:1001800030383E3830060E3E0E06000000000000FB
:10019000005F00000007000700147F147F14242A6A
:1001A0007F2A12231308646236495620500008073C
:1001B0000300001C2241000041221C002A1C7F1C5D
:1001C0002A08083E0808008070300008080808085F
:1001D000000060600020100804023E5149453E00C6
:1001E000427F400072494949462141494D33181424
:1001F000127F1027454545393C4A49493141211173
:1002000009073649494936464949291E0000140064
:100210000000403400000008142241141414141487
:10022000004122140802015909063E415D594E7CE5
:100230001211127C7F494949363E414141227F419A
:1002400041413E7F494949417F090909013E4141F8
:1002500051737F0808087F00417F41002040413FE3
:10026000017F081422417F404040407F021C027FF2
:100270007F0408107F3E4141413E7F090909063E47
:100280004151215E7F091929462649494932030116
:100290007F01033F4040403F1F2040201F3F403828
:1002A000403F631408146303047804036159494D03
:1002B00043007F4141410204081020004141417F39
:1002C00004020102044040404040000307080020AF
:1002D000545478407F2844443838444444283844AF
:1002E00044287F385454541800087E090218A4A4E6
:1002F0009C787F0804047800447D40002040403D05
:10030000007F1028440000417F40007C047804787E
:100310007C080404783844444438FC182424181811
:10032000242418FC7C08040408485454542404046D
:100330003F44243C4040207C1C2040201C3C40305A
:10034000403C44281028444C9090907C4464544C89
:1003500044000836410000007700000041360800E4
:1003600002010204023C2623263C1EA1A161123A8E
:100370004040207A385454555921555579412254DA
:10038000547842215554784020545579400C1E52DF
:100390007212395555555939545454593955545484
:1003A000580000457C410002457D420001457C40EB
:1003B0007D1211127DF0282528F07C54554500202F
:1003C00054547C547C0A097F4932494949323A44A1
:1003D00044443A324A4848303A4141217A3A42400C
:1003E0002078009DA0A07D3D4242423D3D404040DE
:1003F0003D3C24FF2424487E4943662B2FFC2F2BB1
:10040000FF0929F620C0887E090320545479410051
:1004100000447D413048484A32384040227A007AD0
:100420000A0A727D0D19317D2629292F28262929AE
:10043000292630484D4020380808080808080808D0
:10044000382F10C8ACBA2F102834FA00007B0000F7
:1004500008142A142222142A1408AA005500AAAA51
:1004600055AA55AA000000FF00101010FF00141438
:1004700014FF001010FF00FF1010F010F0141414FF
:10048000FC001414F700FF0000FF00FF1414F40434
:10049000FC141417101F10101F101F1414141F0029
:1004A000101010F0000000001F101010101F10108E
:1004B0001010F010000000FF10101010101010109D
:1004C00010FF10000000FF140000FF00FF00001FDD
:1004D00010170000FC04F414141710171414F4047B
:1004E000F40000FF00F714141414141414F700F7A8
:1004F000141414171410101F101F141414F41410D3
:1005000010F010F000001F101F0000001F1400006A
:1005100000FC140000F010F01010FF10FF14141471
:10052000FF141010101F00000000F010FFFFFFFF6D
:10053000FFF0F0F0F0F0FFFFFF0000000000FFFF11
:100540000F0F0F0F0F3844443844FC4A4A4A347E98
:1005500002020606027E027E026355494163384468
:10056000443C04407E201E2006027E020299A5E73C
:10057000A5991C2A492A1C4C7201724C304A4D4DD7
:10058000303048784830BC625A463D3E49494900BF
:100590007E0101017E2A2A2A2A2A44445F444440DB
:1005A000514A444040444A51400000FF0103E0806A
:1005B000FF000008086B6B083612362436060F0958
:1005C0000F06000018180000001010003040FF0156
:1005D00001001F01011E00191D1712003C3C3C3C8C
:1005E00000000000000011241FBECFEFD8E0DEBFE6
:1005F000CDBF11E0A0E0B1E0E2E8F1E402C0059077
:100600000D92AE37B107D9F722E0AEE7B1E001C0F5
:100610001D92AA31B207E1F70E944A190C94BF203B
:100620000C9400001F921FB61F9211248F939F936A
:100630008091D4018F5F8093D4019091E40199233C
:1006400019F091509093E4018A3039F48091F001CF
:100650001092D4018F5F8093F0018091F0018A3075
:1006600051F48091F1011092F0018F5F8093F101BC
:1006700081E0809308018091F1018C3339F410926C
:10068000F1018091E9018F5F8093E9019F918F9142
:100690001F901FBE1F901895EF92FF920F931F930C
:1006A000CF93DF93CDB7DEB7CC55D2400FB6F894D9
:1006B000DEBF0FBECDBF7C0100EE17E024E630E0C8
:1006C0004CE251E064E670E081E090E00E9482112B
:1006D00028EC30E04CE251E068EC70E081E090E022
:1006E0000E9482112091B3013091B401263E310560
:1006F00009F422C22F5F3F4F3093B4012093B3011E
:100700002130310579F54091AF015091B0016091F0
:10071000B1017091B201C701B0E0A0E0841B950B5C
:10072000A60BB70B85399105A105B1050CF4B8C12D
:1007300085599109A109B109840F951FA61FB71FFB
:100740008093AF019093B001A093B101B093B20137
:1007500081E090E09093070180930601909305015A
:1007600080930401F901EE0FFF1F41E050E04C0FB0
:100770005D1FE40FF51FF182E082E0910401F0912A
:100780000501EE0FFF1FE40FF51F80819181E81630
:10079000F90608F089C1309305012093040181E036
:1007A00090E09093AE018093AD014091AD015091E6
:1007B000AE018091B3019091B40101964817590799
:1007C00008F489C1809100019091010140910201DA
:1007D0005091030120910601309107014217530700
:1007E00009F463C2FC01EE0FFF1FA1E0B0E0AC0F03
:1007F000BD1FEA0FFB1F608171812091AF01309115
:10080000B001621B730B9B0124513109AC014C5E9A
:100810005F4F6350710910E000E003960E9482115F
:100820008091020190910301FC01EE0FFF1F21E076
:1008300030E02C0F3D1FE20FF31F6081718120918A
:10084000AF013091B001621B730B9B012C5E3F4FD7
:10085000AC014C5E5F4F6D5F7F4F03960E9482112B
:1008600070E060E090E080E00E94971680910201C5
:1008700090910301FC01EE0FFF1F41E050E04C0F8F
:100880005D1FE40FF51F608171816C5E7F4F2091C9
:10089000AF013091B001621B730B47960E948E1618
:1008A000E0910201F0910301EE0FFF1F61E070E0A3
:1008B0006C0F7D1FE60FF71F81818F9380818F93CF
:1008C0006AE3E62E61E0F62EFF92EF920E94C71DCA
:1008D0008091000190910101FC01EE0FFF1FA1E04A
:1008E000B0E0AC0FBD1FEA0FFB1F608171816B513F
:1008F00071092091AF013091B001621B730B4796D3
:100900000E948E16E0910001F0910101EE0FFF1F91
:1009100021E030E02C0F3D1FE20FF31F81818F9308
:1009200080818F93FF92EF920E94C71D80910401F6
:1009300090910501FC01EE0FFF1F41E050E04C0FCC
:100940005D1FE40FF51F608171812091AF0130912F
:10095000B001621B730B9B0124513109AC014C5E49
:100960005F4F6350710900EE1FEF03960E948211E2
:100970008091060190910701FC01EE0FFF1F61E0DD
:1009800070E06C0F7D1FE60FF71F60817181209171
:10099000AF013091B001621B730B9B012C5E3F4F86
:1009A000AC014C5E5F4F6D5F7F4F03960E948211DA
:1009B00070E060E080EE9FEF0E9497168091060144
:1009C00090910701FC01EE0FFF1FA1E0B0E0AC0F1A
:1009D000BD1FEA0FFB1F608171816C5E7F4F20910C
:1009E000AF013091B001621B730B47960E948E16C7
:1009F000E0910601F0910701EE0FFF1F21E030E0CA
:100A00002C0F3D1FE20FF31F81818F9380818F9305
:100A1000FF92EF920E94C71D809104019091050101
:100A2000FC01EE0FFF1F41E050E04C0F5D1FE40F93
:100A3000F51F608171816B5171092091AF01309177
:100A4000B001621B730B47960E948E16E091040161
:100A5000F0910501EE0FFF1F61E070E06C0F7D1F4C
:100A6000E60FF71F81818F9380818F93FF92EF9222
:100A70000E94C71D8091040190910501909301018E
:100A800080930001809106019091070190930301EA
:100A9000809302010FB6F894DEBF0FBECDBF0DC12B
:100AA00080E090E0DC0148CEE0910601F091070182
:100AB000EE0FFF1F61E070E06C0F7D1FE60FF71F68
:100AC000808191818E159F0508F069CE30930701D2
:100AD0002093060164CE4130510521F48B819C8125
:100AE0009A838983A091AF01B091B001CA010197A7
:100AF000FA01EE0FFF1F21E030E02C0F3D1FE20F47
:100B0000F31F208131812A1B3B0BFC01EE0FFF1FDD
:100B100061E070E06C0F7D1FE60FF71F608171814F
:100B20006A1B7B0B00EE1FEF0E9482118091AD01CA
:100B30009091AE01019635CE1092AE011092AD01AA
:100B40008091AD019091AE01873E910508F03ACEBB
:100B5000AC014F5F5F4FA091AF01B091B001FA01BE
:100B6000EE0FFF1F21E030E02C0F3D1FE20FF31FBF
:100B7000208131812A1B3B0BFC01EE0FFF1F61E03E
:100B800070E06C0F7D1FE60FF71F608171816A1B9B
:100B90007B0B10E000E00E9482118091AD019091EA
:100BA000AE01863E910599F0FC013196EE0FFF1FD4
:100BB000A1E0B0E0AC0FBD1FEA0FFB1F2081318127
:100BC000FC01EE0FFF1FEA0FFB1F31832083C3538D
:100BD000DE4FF982E882CD5CD140E0910401F091D2
:100BE0000501EE0FFF1F21E030E02C0F3D1FE20F4B
:100BF000F31F20813181E216F30608F03FC0909385
:100C0000050180930401C153DE4FF982E882CF5C75
:100C1000D140CF52DE4FF982E882C15DD140863E9D
:100C2000910511F1AC014F5F5F4FA091AF01B09101
:100C3000B001FC013296EE0FFF1F61E070E06C0F17
:100C40007D1FE60FF71F208131812A1B3B0BFA0124
:100C5000EE0FFF1FE60FF71F608171816A1B7B0B90
:100C600000EE1FEF0E9482118091AD019091AE01C4
:100C700001969093AE018093AD0162CFE0910601A1
:100C8000F0910701EE0FFF1F41E050E04C0F5D1F98
:100C9000E40FF51F208131812E153F0508F0B3CFF9
:100CA0009093070180930601AECF2091040130910B
:100CB00005018217930709F095CD62E370E08AE0A1
:100CC00090E00E948E16CE52DE4F8881C25DD140E8
:100CD0008F93CF52DE4F8881C15DD1408F93E091D9
:100CE0000401F0910501EE0FFF1FA1E0B0E0AC0F91
:100CF000BD1FEA0FFB1F81818F9380818F938DE24F
:100D000091E09F938F930E94C71D64E170E08AE099
:100D100090E00E948E16809105018F9380910401CE
:100D20008F938AE391E09F938F930E94C71D209138
:100D3000AF013091B0014091B1015091B201C75A59
:100D4000DD4F288339834A835B83C955D2400FB670
:100D5000F894DEBF0FBECDBFC75ADD4F68817981E1
:100D60008A819B81C955D240C45ADD4F0FB6F89491
:100D7000DEBF0FBECDBFDF91CF911F910F91FF90CE
:100D8000EF900895CF93C82F0E941C190E94461916
:100D9000883049F58EEE0E9428190E944619883144
:100DA00021F58C2F0E9428190E944619C3E0883231
:100DB000B9F40E941C190E944619C4E0803181F4E4
:100DC0008FEE0E9428190E944619C5E0803441F434
:100DD0000E943C19C82F0E94241980E58A95F1F7DA
:100DE0008C2FCF910895CBE7FBCFC2E0F9CFCF9303
:100DF000DF93D82FC62F0E941C190E9446198830F5
:100E0000F1F48EEE0E9428190E9446198831C9F427
:100E10008D2F0E9428190E9446198832A1F48C2F28
:100E20000E9428190E944619883279F40E942419D8
:100E300080E58A95F1F780E0DF91CF9108958BE00E
:100E4000FBCF86E1F9CF81E2F7CF8CE2F5CF0F93AC
:100E50001F93CF93DF93CDB7DEB7A6970FB6F89465
:100E6000DEBF0FBECDBF1092C10110E1812F0E94E5
:100E7000C206E091C101F0E0EE0FFF1F21E030E07B
:100E80002C0F3D1FE20FF31F90E0918380838FE1D1
:100E90009EE40197F1F700C000001F5F8091C1013F
:100EA0008F5F8093C101823108F38B819C8120E0A8
:100EB0003981282B392B45E0369527954A95E1F75E
:100EC0003093CC012093CB01982F882788279F70DF
:100ED0002D813E81822B932B93FDA0C09093EF0137
:100EE0008093EE018B859C85B0E0A0E04F81588512
:100EF00070E060E0762F652F542F442709851A850E
:100F000030E020E0402B512B622B732B762F652F86
:100F1000542F4427482B592B6A2B7B2B762F652F78
:100F2000542F4427FCE07595679557954795FA959A
:100F3000D1F74093DA015093DB016093DC017093A9
:100F4000DD01BA2FA92F982F88274D855E8570E087
:100F500060E0842B952BA62BB72BBA2FA92F982FA7
:100F600088274F85588970E060E0842B952BA62B4D
:100F7000B72B2CE0880F991FAA1FBB1F2A95D1F70A
:100F80003CE0B595A795979587953A95D1F78093CD
:100F9000BD019093BE01A093BF01B093C00180E05A
:100FA00099892B893C89822B932B9093B70180934D
:100FB000B60180E09D892F89388D822B932B9093E9
:100FC000CE018093CD0180E0998D2B8D3C8D822BBD
:100FD000932B9093D3018093D20180E09D8D2F8D30
:100FE00038A1822B932B9093E3018093E20180E060
:100FF00099A12BA13CA1822B932B9093CA018093A2
:10100000C90190E080E0A6960FB6F894DEBF0FBE4F
:10101000CDBFDF91CF911F910F91089590515ECF79
:1010200069E98CE00E94F7062FE788E391E0215000
:1010300080409040E1F700C00000089589E091E011
:1010400090931702809316020E94850D90E080E035
:101050000E949F0E2FEF80E792E021508040904049
:10106000E1F700C0000083E00E94D90F8FE99FE004
:101070000197F1F700C0000070E060E080EE9FEFA4
:101080000E94971670E060E090E080E00E948E166B
:1010900082E00C94A016EF92FF920F931F93CF93D0
:1010A000DF93C82F11E080E4F82E00E890E1E92EEC
:1010B00088E00E94C206D82F0E942707C33009F497
:1010C00064C010F5C130B9F1C23009F449C065EA15
:1010D0008EE00E94F70666E98FE00E94F70662E064
:1010E00082E60E94F70660E08EE00E94F70660E06C
:1010F0008FE00E94F706D7FFDBCFDF91CF911F91E2
:101100000F91FF90EF900895C43009F767EF86E0E4
:101110000E94F70667ED87E00E94F7066CE089E021
:101120000E94F70667E088E00E94F7060093D90165
:101130000093B501CCCF60E086E00E94F70660E83E
:1011400087E00E94F70660E089E00E94F70667E00A
:1011500088E00E94F706C093D901C093B501B7CFCC
:1011600064E186E00E94F70660E987E00E94F706E6
:1011700064E089E00E94F70667E088E00E94F706D5
:101180001093D901E092B501A2CF66E286E00E94F9
:10119000F70660EA87E00E94F70664E089E00E94B3
:1011A000F70667E088E00E94F7061093D901F092F5
:1011B000B5018DCFCF93DF9300D000D0CDB7DEB790
:1011C00083E00E94C206ECE9F1E0808384E00E94A3
:1011D000C20680939D0185E00E94C206282F80935D
:1011E0009E01ECE9F1E08081918198278927982779
:1011F000B0E0A0E0BA2FA92F982F8827822BBA2F12
:10120000A92F982F8827292F3A2F4B2F552747FD95
:101210005A95CA01B9010F900F900F900F90DF916E
:10122000CF910895CF92DF92EF92FF920F931F9389
:10123000CF93DF9300D000D000D0CDB7DEB7898345
:1012400083E00E94C20680939C0184E00E94C20653
:1012500080939D0185E00E94C20680939E01898152
:101260000E94DA082981C12CE0EEDE2EE3E0EE2EAA
:10127000F12C203121F108F0A2C0C12CD12C58E36F
:10128000E52EF12C2430D9F090F4C12CD12C48E07B
:10129000E42EF12C213099F0C12CD12CB8E1EB2EA9
:1012A000F12C223061F0C12CD12C760108C039819B
:1012B000C12CD12CA8E7EA2EF12C3830A1F70E94DE
:1012C000021B8B018E839D83C701B6010E94021B06
:1012D0009B01AC0109831A838E818B838D818C8362
:1012E00069817A818B819C810E94581AD62EE72EC3
:1012F000F82E9D838091EE019091EF019C01990F52
:10130000440B550B29833A834B835C83CA01B90193
:101310000E94021B9B01AC01D982EA82FB828D8173
:101320008C8369817A818B819C810E948E1BD62E51
:10133000E72EF82E9D838091CB019091CC019C01EA
:10134000990F440B550B29833A834B835C83CA0165
:10135000B9010E94021B9B01AC01D982EA82FB8287
:101360008D818C8369817A818B819C810E94EC19AB
:1013700020E030E048EC52E469837A838B839C83DD
:1013800069817A818B819C810E948E1B69837A831B
:101390008B839C8369817A818B819C810E94CA1A8C
:1013A00026960FB6F894DEBF0FBECDBFDF91CF916A
:1013B0001F910F91FF90EF90DF90CF90089549819A
:1013C000C12C30EED32E3FE0E32EF12C403409F453
:1013D00076CFC12C20EED22E2FE1E22EF12C403818
:1013E00009F46DCFC12CF0EEDF2EF7E0EF2EF12CDB
:1013F000403209F464CF57CF4F925F926F927F9241
:101400008F929F92AF92BF92CF92DF92EF92FF9214
:101410000F931F93CF93DF9300D000D000D0CDB7B0
:10142000DEB78E836D8383E00E94C20680939C01A9
:1014300084E00E94C20680939D0185E00E94C2065E
:10144000282F80939E0180919C0190919D01982767
:1014500089279827B0E0A0E0BA2FA92F982F8827D6
:10146000822BBA2FA92F982F8827292F3A2F4B2F5D
:10147000552747FD5A9529833A834B835C833E81E8
:10148000C12C90EED92E93E0E92EF12C303121F1D0
:1014900008F0DEC1C12CD12C88E3E82EF12C3430C9
:1014A000D9F090F4C12CD12C08E0E02EF12C313091
:1014B00099F0C12CD12C48E1E42EF12C323061F0AE
:1014C000C12CD12C760108C04E81C12CD12C38E71B
:1014D000E32EF12C4830A1F769817A818B819C81C0
:1014E0000E94021BB62E072F182F9E83C701B6013C
:1014F0000E94021B9B01AC01B9820A831B838E816F
:101500008C8369817A818B819C810E94581AB62EC6
:10151000072F182F9E8380E00E94C20680939C01B3
:1015200081E00E94C20680939D0182E00E94C20673
:1015300080939E0140919C0150919D015427452725
:10154000542770E060E0762F652F542F4427482BF6
:10155000762F652F542F4427BB2777FDBA95A72FE9
:10156000962F852F89839A83AB83BC839D8190318D
:1015700009F4A4C108F093C1943009F4A6C108F09D
:1015800084C1913009F4A7C1923029F4C12CD12C27
:1015900078E1E72EF12C69817A818B819C810E9410
:1015A000021B4B01A82E9D83C701B6010E94021B9E
:1015B0009B01AC0189829A82AB828D818C83698187
:1015C0007A818B819C810E94581AD62EE72EF82EA4
:1015D0009D838091C9019091CA019C01990F440B90
:1015E000550B29833A834B835C83CA01B9010E945E
:1015F000021B2D2D3E2D4F2D5D8169837A838B83B8
:101600009C8369817A818B819C810E948E1B4B0116
:10161000A82EC92E8091D2019091D3019C01990FDF
:10162000440B550B29833A834B835C83CA01B90170
:101630000E94021B9B01AC0189829A82AB82CC8200
:1016400069817A818B819C810E94EC192D2D3E2D20
:101650004F2D5D8169837A838B839C8369817A8135
:101660008B819C810E948E1B4B01A82EC92E6091FC
:10167000BD017091BE018091BF019091C0010E9497
:10168000021B9B01AC0189829A82AB82CC82698168
:101690007A818B819C810E94EC192D2D3E2D4F2D3E
:1016A0005D8169837A838B839C8369817A818B8155
:1016B0009C810E948E1B4B01A82EC92E6091DA01DD
:1016C0007091DB018091DC019091DD010E94021B91
:1016D0009B01AC0189829A82AB82CC8269817A813A
:1016E0008B819C810E94EC194B01A82EC92E809100
:1016F000B6019091B7019C01990F440B550B2983BA
:101700003A834B835C83CA01B9010E94021B2B2DD3
:10171000302F412F5E8169837A838B839C8369811B
:101720007A818B819C810E948E1B9B01AC018982F6
:101730009A82AB82CC8269817A818B819C810E9462
:10174000EC194B01A82EC92E8091E2019091E30182
:101750009C01990F440B550B29833A834B835C837F
:10176000CA01B9010E94021B2D2D3E2D4F2D5D8116
:1017700069837A838B839C8369817A818B819C8145
:101780000E948E1B2B013C018091CD019091CE01D6
:101790009C01990F440B550B29833A834B835C833F
:1017A000CA01B9010E94021B9B01AC0149825A8205
:1017B0006B827C8269817A818B819C810E94EC1989
:1017C0002B013C012D2D3E2D4F2D5D81B9820A83C9
:1017D0001B838E818C8369817A818B819C810E949D
:1017E0008E1B9B01AC0149825A826B827C8269818B
:1017F0007A818B819C810E948E1B9B01AC01898226
:101800009A82AB82CC8269817A818B819C810E9491
:10181000EC1969837A838B839C8369817A818B81BC
:101820009C8126960FB6F894DEBF0FBECDBFDF9128
:10183000CF911F910F91FF90EF90DF90CF90BF90CD
:10184000AF909F908F907F906F905F904F90089592
:101850005E81C12C10EED12E1FE0E12EF12C503410
:1018600009F43ACEC12CB0EEDB2EBFE1EB2EF12C09
:10187000503809F431CEC12C20EED22E27E0E22ED2
:10188000F12C503209F428CE1BCEAD81A83009F0DE
:1018900082CEC12CD12C68E7E62EF12C7CCEBD8106
:1018A000B034F9F0B03821F1B03209F074CEC12C67
:1018B00050EED52E57E0E52EF12C6DCEC12C40EE2A
:1018C000D42E43E0E42EF12C66CEC12CD12C38E38B
:1018D000E32EF12C60CEC12CD12C28E0E22EF12C8D
:1018E0005ACEC12C90EED92E9FE0E92EF12C53CE8A
:1018F000C12C80EED82E8FE1E82EF12C4CCE0F9328
:101900001F93CF93DF9300D000D000D0CDB7DEB7C8
:101910008B018E839D83B901CA010E94001B9B012C
:10192000AC0109831A838E818B838D818C836981BD
:101930007A818B819C810E94581A27EB39EC42E412
:101940005EE369837A838B839C8369817A818B814F
:101950009C810E94FB1B9B01AC0160E070E080E871
:101960009FE30E94EB1920E03AE24DE257E46983DD
:101970007A838B839C8369817A818B819C810E948D
:101980008E1B20E030E048EC52E469837A838B833D
:101990009C8369817A818B819C810E948E1B6983E3
:1019A0007A838B839C8369817A818B819C810E945D
:1019B000CA1A26960FB6F894DEBF0FBECDBFDF91D0
:1019C000CF911F910F910895CF93DF9300D000D056
:1019D000CDB7DEB724E630E040E050E00E94801D45
:1019E000C9010F900F900F900F90DF91CF91089544
:1019F000CF93C62F24E630E040E050E00E94801DE7
:101A00008C2F94E6299F80191124CF9108958FEF90
:101A10008AB95F9A209A089584B18E6284B980E56C
:101A20008CBD8DB581608DBD299A08958EBD0DB494
:101A300007FEFDCF089595B19C7F95B99DE09A95DD
:101A4000F1F700000E94160D299A0895289A92E055
:101A50009A95F1F700C029980E94160D299A0895C9
:101A6000DF92EF92FF920F931F93CF93DF93E82EB5
:101A7000D92ED62F172F042FF52EC22F8AE20E94BF
:101A80001B0D8D2D0E94260D8E2D0E94260D8F2D53
:101A90000E94260D802F0E94260D8BE20E941B0DB6
:101AA000812F0E94260D8D2F0E94260D8C2F0E94C3
:101AB000260D8C2F0E94260D8CE2DF91CF911F9175
:101AC0000F91FF90EF90DF900C941B0D5F9A2FEF1A
:101AD00081EE94E0215080409040E1F700C000008A
:101AE0005F982FEF81EE94E0215080409040E1F725
:101AF00000C000005F9A2FEF81EE94E021508040FB
:101B00009040E1F700C0000008950E94070D0E9478
:101B10000C0D0E94660D81E00E941B0D2FEF89E6DF
:101B200098E1215080409040E1F700C000008BEC2C
:101B30000E941B0D89E30E94260D8CE20E94260D57
:101B400080E00E94260D84E30E94260D82E00E9420
:101B5000260D8FEC0E941B0D80E00E94260D81EC6B
:101B60000E94260D80E30E94260D88EE0E941B0D28
:101B700085E80E94260D80E00E94260D88E70E94DD
:101B8000260D8AEE0E941B0D80E00E94260D80E04B
:101B90000E94260D8DEE0E941B0D84E60E94260DEC
:101BA00083E00E94260D82E10E94260D81E80E94BA
:101BB000260D87EF0E941B0D80E20E94260D80EC0F
:101BC0000E941B0D83E20E94260D81EC0E941B0DDA
:101BD00080E10E94260D85EC0E941B0D8EE30E9481
:101BE000260D88E20E94260D87EC0E941B0D86E8D8
:101BF0000E94260D86E30E941B0D88E40E94260D9C
:101C00008AE30E941B0D85E50E94260D81EB0E9450
:101C10001B0D80E00E94260D88E10E94260D86EBB8
:101C20000E941B0D88E00E94260D82E80E94260D6E
:101C300087E20E94260D82EF0E941B0D80E00E9429
:101C4000260D86E20E941B0D81E00E94260D80EE8B
:101C50000E941B0D8FE00E94260D81E30E94260D3D
:101C60008BE20E94260D8CE00E94260D8EE00E94E1
:101C7000260D88E00E94260D8EE40E94260D81EF3D
:101C80000E94260D87E30E94260D87E00E94260D04
:101C900080E10E94260D83E00E94260D8EE00E94C6
:101CA000260D89E00E94260D80E00E94260D81EE1F
:101CB0000E941B0D80E00E94260D8EE00E94260DE2
:101CC00084E10E94260D83E00E94260D81E10E949E
:101CD000260D87E00E94260D81E30E94260D81ECEF
:101CE0000E94260D88E40E94260D88E00E94260DA1
:101CF0008FE00E94260D8CE00E94260D81E30E9459
:101D0000260D86E30E94260D8FE00E94260D81E1BC
:101D10000E941B0D2FEF8DEE92E0215080409040ED
:101D2000E1F700C0000089E20C941B0DCF93C82F8F
:101D3000892F0E94260D8C2FCF910C94260DEF92A7
:101D4000FF920F931F93CF93DF93182F092F2091AA
:101D50001B0130911C0140911D0150911E01215029
:101D600031094150510970E060E090E080E00E944C
:101D7000300DD0E0C0E080911D0190911E01C81788
:101D8000D907B8F0DF91CF911F910F91FF90EF909D
:101D90000895812F902F0E94960E8FEFE81AF80A6F
:101DA00080911B0190911C01E816F90690F3219691
:101DB000E2CFF12CE12CF4CFCF93DF93FC01D42FB1
:101DC000C52F80911D0190911E01E817F907B0F40D
:101DD00080911B0190911C016817790778F49B0191
:101DE0002F5F3F4FAF014F5F5F4FCF010E94300D1C
:101DF0008D2F9C2FDF91CF910C94960EDF91CF9178
:101E000008950F931F93CF93DF93FC01EA01122FE4
:101E1000032F80911D0190911E01E817F90718F515
:101E200080911B0190911C0168177907E0F42091C3
:101E30001B0130911C01CA010197860F971F821761
:101E4000930730F0C0911B01D0911C01C61BD70B2A
:101E50009B01215031092C0F3D1FAF01CF010E9482
:101E6000300D219728F4DF91CF911F910F910895A4
:101E7000812F902F0E94960EF4CF0F931F93CF9334
:101E8000DF93FC01EA01122F032F80911D01909135
:101E90001E01E817F90718F580911B0190911C01AC
:101EA00068177907E0F420911D0130911E01CA01E5
:101EB00001978E0F9F1F8217930730F0C0911D016D
:101EC000D0911E01CE1BDF0BAF01415051094C0FC9
:101ED0005D1F9B01CF010E94300D219728F4DF91F7
:101EE000CF911F910F910895812F902F0E94960EF0
:101EF000F4CFCF92DF92EF92FF920F931F93CF9385
:101F0000DF93FC017A01E90180911D0190911E018E
:101F1000E817F907C0F580911B0190911C01681723
:101F2000790788F520911D0130911E01CA010197A2
:101F30008E0F9F1F8217930730F0E0901D01F090E5
:101F40001E01EE1AFF0A20911B0130911C01CE01E7
:101F50000197860F971F8217930730F0C0911B01DE
:101F6000D0911C01C61BD70B9B01215031092C0FAE
:101F70003D1FAF01415051094E0D5F1DCF010E9421
:101F8000300D2097A1F4DF91CF911F910F91FF9019
:101F9000EF90DF90CF900895C8010E94960E81E0E7
:101FA000C81AD108C114D104B9F72197EACF670143
:101FB000F9CFCF93C82F86E30E941B0DC370C230A8
:101FC00089F0C33001F188E4C13069F488E20E94ED
:101FD000260D80E491E090931E0180931D0180EF17
:101FE00090E00BC088E80E94260D80EF90E090936F
:101FF0001E0180931D0180E491E090931C01809369
:102000001B01CF91089588EEE2CF2F923F924F921D
:102010005F926F927F928F929F92AF92BF92CF9278
:10202000DF92EF92FF920F931F93CF93DF9300D035
:1020300000D0CDB7DEB78C017B014B835C83522E81
:10204000432E81E090E05C012B813C81A21AB30A0F
:10205000C9019195819591099C01220F331F3A8303
:1020600029836B817C816E0D7F1D452D542DC80108
:102070000E94DC0EB7018B819C81681B790B452D7A
:10208000542DC8010E94DC0E452D542DB7018B81C3
:102090009C81800F911F0E94DC0E452D542DB701AD
:1020A000C8012B813C81821B930B0E94DC0ED12C3A
:1020B000C12C8B819C81C816D906BCF00F900F9063
:1020C0000F900F90DF91CF911F910F91FF90EF90A4
:1020D000DF90CF90BF90AF909F908F907F906F9048
:1020E0005F904F903F902F900895B7FC0DC08B816B
:1020F0009C8101979C838B8329813A812E5F3F4F7E
:102100003A832983A20EB31E3FEFC31AD30AC60136
:10211000880F991F0196A80EB91E38016C0C7D1C02
:10212000452D542D8B809C808E0C9F1CB401C301C7
:102130000E94DC0E18012C183D08452D542DB401C9
:10214000C1010E94DC0E452D542D47018B819C81DD
:10215000881A990AB401C3010E94DC0E452D542D42
:10216000B401C1010E94DC0E47018C0C9D1C452D61
:10217000542DB4016B807C80600E711EC3010E94DF
:10218000DC0E452D542DB40118012B813C81221AFF
:10219000330AC1010E94DC0E47018C189D08452DB1
:1021A000542DB401C3010E94DC0E452D542DB40101
:1021B000C1010E94DC0E7DCF2F923F924F925F9221
:1021C0006F927F928F929F92AF92BF92CF92DF9247
:1021D000EF92FF920F931F93CF93DF936C015B01FC
:1021E000EA0181E090E04C01841A950A6624772484
:1021F000641A750A660C771CF12CE12C822F84700E
:10220000582E822F8270482E822F8870382E21708F
:10221000222EEC16FD069CF0DF91CF911F910F91BD
:10222000FF90EF90DF90CF90BF90AF909F908F90F6
:102230007F906F905F904F903F902F90089597FC04
:1022400006C0219782E0680E711C860C971C8FEFE8
:10225000E81AF80AC701880F991F0196880E991E7F
:10226000552091F0A801BE016A0D7B1DC6018E0D9F
:102270009F1D0E94DC0EA801B5016E0D7F1DCE01D1
:102280008C0D9D1D0E94DC0E442091F0A801B5012B
:102290006C1B7D0BC6018E0D9F1D0E94DC0EA801DC
:1022A000B5016E197F09CE018C0D9D1D0E94DC0EBB
:1022B000332091F0A801B5016E0D7F1DC6018C1B66
:1022C0009D0B0E94DC0EA801BE016A0D7B1DC6019C
:1022D0008E199F090E94DC0E222009F49ACFA801D2
:1022E000B5016E197F09C6018C1B9D0B0E94DC0E87
:1022F000A801B5016C1B7D0BC6018E199F090E94B8
:10230000DC0E87CF2F923F924F925F926F927F9217
:102310008F929F92AF92BF92CF92DF92EF92FF92F5
:102320000F931F93CF93DF9300D000D0CDB7DEB7CC
:102330008B839C837B016A01C90109831A8389010C
:10234000061B170B17FF03C01195019511094601D4
:102350002B813C81821A930A97FE03C09194819449
:102360009108801691065CF43C2D2D2D6C01832F75
:10237000922F3B812C81FC82EB82E32EF22E2B816B
:102380003C81C216D3065CF43E2D2F2D7C01832F99
:10239000922F3B812C81DC82CB82C32ED22E160160
:1023A0002B813C81221A330A2C014E185F0857FEFC
:1023B00003C0519441945108310137FE03C03FEFEF
:1023C000631A730A75946794E816F906D4F1AA247F
:1023D000AA94BA2C2B813C81C216D306BCF40F9070
:1023E0000F900F900F90DF91CF911F910F91FF9061
:1023F000EF90DF90CF90BF90AF909F908F907F90A5
:102400006F905F904F903F902F90089549815A812F
:102410006B817C81C701801691061CF0B7018B810E
:102420009C810E94DC0E6418750877FE04C0EA0CDB
:10243000FB1C620C731C8B819C8101969C838B839B
:10244000C9CFAA24A394B12CC5CF0F931F938901A0
:10245000460F571F9A0121503109AC010E94821189
:102460001F910F9108952F923F924F925F926F921A
:102470007F928F929F92AF92BF92CF92DF92EF9214
:10248000FF920F931F93CF93DF9300D000D0CDB76F
:10249000DEB72C015B014B835C83480181E090E057
:1024A0006C014B815C81C41AD50A1A0131942194C4
:1024B0003108220C331C10E000E066246394712C78
:1024C000522F5170598322702A834B815C810417EB
:1024D0001507BCF00F900F900F900F90DF91CF91E8
:1024E0001F910F91FF90EF90DF90CF90BF90AF9032
:1024F0009F908F907F906F905F904F903F902F9024
:102500000895D7FC0AC08B819C8101979C838B83A3
:1025100092E0290E311CC20CD31C0F5F1F4FE2E06A
:102520006E0E711CC60CD71CF981FF2301F14B8183
:102530005C81440F551F4F5F5F4F480D591D970138
:10254000B5018B819C81681B790BC201800F911FA3
:102550000E9425129701A401460D571DB501601B6D
:10256000710B8B819C81840D951D0E9425129A818F
:10257000992309F4AACF4B815C81440F551F4F5F0B
:102580005F4F480D591D9701B501EB81FC816E1B12
:102590007F0BC201801B910B0E9425129701A301A2
:1025A000480D591DB501601B710BC201EB81FC8107
:1025B0008E1B9F0B0E94251288CFAF92BF92CF92A5
:1025C000DF92EF92FF920F931F93CF93DF936C01F3
:1025D0005B01EA017901440F551F4F5F5F4F6C1B90
:1025E0007D0BC6010E94010F10E000E023E0AE0168
:1025F000B501C6010E943312DF91CF911F910F9157
:10260000FF90EF90DF90CF90BF90AF9008950F9321
:102610001F938901480F591F415051099B010E9486
:1026200082111F910F910895AF92BF92CF92DF92C6
:10263000EF92FF920F931F93CF93DF93EC017B01F7
:102640005A01690198010E940713B7016C0D7D1DA5
:10265000615071099801A501CE010E9407139801EC
:10266000A601B701CE010E942512CE018A0D9B1D45
:102670009801A601B7010197DF91CF911F910F91AA
:10268000FF90EF90DF90CF90BF90AF900C94251209
:10269000AF92BF92CF92DF92EF92FF920F931F9370
:1026A000CF93DF93D62EC72EB22EA32EEC017C0142
:1026B000E40EF51ECE15DF055CF0DF91CF911F9182
:1026C0000F91FF90EF90DF90CF90BF90AF90089563
:1026D00098014B2D5A2D6D2D7C2DCE010E94251277
:1026E0002196E8CF2F923F924F925F926F927F9206
:1026F0008F929F92AF92BF92CF92DF92EF92FF9212
:102700000F931F93CF93DF9300D000D0CDB7DEB7E8
:102710005C016B011A0129010B831C830B811C8155
:10272000000F111F3A01601A710A8B809C808A0C7D
:102730009B1C9701A301C4010E940713C601840DCD
:10274000951D9A838983BC01615071099701A3018A
:10275000C4010E940713401A510A8B819C81C80E44
:10276000D91E9701A201B601C5010E942512A20C33
:10277000B31C9701A201B601C50101970E94251261
:10278000870121E04B815C81B601C4010E94DC100D
:102790008B819C81A81AB90A91E0A91AB10822E09C
:1027A0004B815C81B601C5010E94DC10C980DA80D2
:1027B0008B819C81C81AD90A91E0C91AD10824E0FA
:1027C0004B815C81B601C5010E94DC1028E04B8181
:1027D0005C81B601C4010E94DC100F900F900F9035
:1027E0000F90DF91CF911F910F91FF90EF90DF90AD
:1027F000CF90BF90AF909F908F907F906F905F90A1
:102800004F903F902F9008952F923F924F925F925A
:102810006F927F928F929F92AF92BF92CF92DF92F0
:10282000EF92FF920F931F93CF93DF931C015B01F5
:102830002A01E901680137017801EE0CFF1C48010B
:10284000820C931C4E195F098301C4010E94481336
:10285000CE19DF092197AC0CBD1C420C531CC201E0
:102860008C199D0973018E0121E0A601B501019724
:102870000E94331222E0A601B501C4010E94331266
:10288000DF91CF911F910F91FF90EF90DF90CF904C
:10289000BF90AF909F908F907F906F905F904F9080
:1028A0003F902F9008952F923F924F925F926F9298
:1028B0007F928F929F92AF92BF92CF92DF92EF92D0
:1028C000FF920F931F93CF93DF9300D000D000D0DF
:1028D0000F92CDB7DEB72C013B015A016901098384
:1028E0001A83ED822F2CC901079697FD07969C014C
:1028F00093E0359527959A95E1F73C832B83F12C4E
:10290000E12C312C10E000E029813A8102171307F5
:102910000CF448C027960FB6F894DEBF0FBECDBFAB
:10292000DF91CF911F910F91FF90EF90DF90CF90AB
:10293000BF90AF909F908F907F906F905F904F90DF
:102940003F902F9008958E819F8187709927330C37
:10295000892B61F4EE81FF8183E0F595E7958A95F7
:10296000E1F7EE0DFF1DEA0DFB1D349037FE09C0A7
:102970004D81522DB4018E819F81840D951D0E9441
:10298000DC0E8E819F8101969F838E832E813F81F5
:102990002C153D05C4F20F5F1F4F8B819C81E80E03
:1029A000F91EB2CF1F821E824301800E911EEECF10
:1029B0002F923F924F925F926F927F928F929F924F
:1029C000AF92BF92CF92DF92EF92FF920F931F933D
:1029D000CF93DF9300D000D00F92CDB7DEB73C018C
:1029E0005A01690109831A83EB822F2C8B0129017B
:1029F00087E0480E511C57FE04C029019EE0490E95
:102A0000511C93E0559447949A95E1F7912C812CB1
:102A1000312CF12CE12C89819A81E816F9060CF40D
:102A200048C00F900F900F900F900F90DF91CF91B3
:102A30001F910F91FF90EF90DF90CF90BF90AF90DC
:102A40009F908F907F906F905F904F903F902F90CE
:102A500008958C819D81877099273694892B61F424
:102A6000EC81FD8183E0F595E7958A95E1F7E80D26
:102A7000F91DEA0DFB1D349030FE09C04B81522D2B
:102A8000B8018C819D81860D971D0E94DC0E8C8182
:102A90009D8101969D838C838C819D818C159D05E4
:102AA000C4F29FEFE91AF90A0F5F1F4F840C951CBF
:102AB000B2CF1D821C82F0CF80910F029091100244
:102AC00090930A02809309028091FD019091FE018A
:102AD0009093080280930702089580910F029091CD
:102AE000100290930402809303028091FD01909163
:102AF000FE0190930C0280930B02089580910F02C7
:102B00009091100290930602809305028091FD013E
:102B10009091FE0190931302809312020895809188
:102B20000F0290911002909300028093FF01809118
:102B3000FD019091FE01909302028093010208959D
:102B40002F923F924F925F926F927F928F929F92BD
:102B5000AF92BF92CF92DF92EF92FF920F931F93AB
:102B6000CF93DF93CDB7DEB729970FB6F894DEBFCA
:102B70000FBECDBF6B01190109831A83888799871E
:102B800080911D0190911E012885398528173907EC
:102B900008F068C080911B0190911C0168177907AB
:102BA00008F060C0C90136E0E39E800D911D11243C
:102BB000181619060CF056C08E2D90E09D838C835C
:102BC000E8E0EE9EC0011124860F971F1816190623
:102BD0000CF048C0F5E04F9FA00111249A01265146
:102BE0003F4F3F832E83688479841B825C804D80B5
:102BF0003B81F12C353019F0EE81FF81F4904601D4
:102C0000B12CA12CF0FE47C0F1E0A1018101EF122F
:102C100050C0B6016A0D7B1DC3010E94DC0EF69404
:102C20008FEFA81AB80AEC81FD818E0E9F1EF8E086
:102C3000AF16B10439F72B812F5F2B8388859985D7
:102C4000EC81FD818E0F9F1F99878887FFEF6F1A98
:102C50007F0A2E813F812F5F3F4F3F832E833B8131
:102C6000363031F629960FB6F894DEBF0FBECDBFD1
:102C7000DF91CF911F910F91FF90EF90DF90CF9058
:102C8000BF90AF909F908F907F906F905F904F908C
:102C90003F902F90089529813A812215330509F438
:102CA000BECF31E009811A81E31203C049815A8104
:102CB000B0CF252D342D452D542DB401888599850F
:102CC0000E94790FACCFEF920F931F93482FE090A3
:102CD00011020091FB011091FC0120910D02309135
:102CE0000E026091FD017091FE0180910F029091A2
:102CF00010020E94A0152091110280910F02909164
:102D0000100236E0239F800D911D11249093100234
:102D100080930F021F910F91EF90089590931002EE
:102D200080930F027093FE016093FD0108959093CC
:102D30000E0280930D027093FC016093FB010895D5
:102D4000893028F4811101C081E080931102089537
:102D50008A30A9F4809111022091FD013091FE0189
:102D600048E0849FC0011124820F931F9093FE01BD
:102D70008093FD011092100210920F0208958D3081
:102D800011F00C94631608950E94A81681E090E05B
:102D900008958F929F92AF92BF92DF92EF92FF922F
:102DA0000F931F93CF93DF938FE191E090931702DE
:102DB0008093160204E010E01093100200930F02BB
:102DC0001093FE010093FD018FE99FE00197F1F759
:102DD00000C0000080EE97E090930E0280930D02F9
:102DE0001092FC011092FB018FE99FE00197F1F72F
:102DF00000C00000C2E0C09311028FE99FE001977C
:102E0000F1F700C000008DE391E09F938F930E9443
:102E1000C71D8FE99FE00197F1F700C0000080E037
:102E200098EF90930E0280930D021092FC01109285
:102E3000FB018FE99FE00197F1F700C00000C0930C
:102E400011028FE99FE00197F1F700C0000085E4CF
:102E500091E09F938F930E94C71D8FE99FE0019798
:102E6000F1F700C000001093100200930F0288E2F7
:102E7000A82EB12CB092FE01A092FD018FE99FE037
:102E80000197F1F700C000008FEF97E090930E02DA
:102E900080930D021092FC011092FB018FE99FE0DC
:102EA0000197F1F700C00000D4E0D09311028FE940
:102EB0009FE00197F1F700C0000086E50E946316CD
:102EC0008FE99FE00197F1F700C000008091FD01BC
:102ED0009091FE0106969093FE018093FD01C3E060
:102EE000C09311028FE99FE00197F1F700C0000045
:102EF00086E591E00E94DD1D8FE99FE00197F1F7E3
:102F000000C000008091FD019091FE010C9690930D
:102F1000FE018093FD010E945C158AE591E09F937C
:102F20008F930E94C71D8FE99FE00197F1F700C0C2
:102F300000001093100200930F0298E7892E912C45
:102F40009092FE018092FD018FE99FE00197F1F7D9
:102F500000C00000D09311028FE99FE00197F1F7C4
:102F600000C0000086E50E9463168FE99FE001978C
:102F7000F1F700C000008091FD019091FE010696DE
:102F80009093FE018093FD01C09311028FE99FE0B1
:102F90000197F1F700C0000081E691E00E94DD1D7D
:102FA0008FE99FE00197F1F700C000000E946D15C6
:102FB00025E0D22ED092110209E611E01F930F9363
:102FC0000E94C71D8FE99FE00197F1F700C0000044
:102FD00034EAE32EF12CF0921002E0920F02B0924C
:102FE000FE01A092FD018FE99FE00197F1F700C07B
:102FF000000080EE9FEF90930E0280930D021092DE
:10300000FC011092FB018FE99FE00197F1F700C0EE
:103010000000D09311028FE99FE00197F1F700C003
:10302000000089E40E9463168FE99FE00197F1F7A1
:1030300000C000008091FD019091FE0106969093E2
:10304000FE018093FD01C09311028FE99FE001977B
:10305000F1F700C0000086E591E09F938F930E94F6
:10306000C71D8FE99FE00197F1F700C00000F092C3
:103070001002E0920F028091FD019091FE01849672
:103080009093FE018093FD010E947E15C093110272
:103090008FE691E09F938F930E94C71D8FE99FE079
:1030A0000197F1F700C00000F0921002E0920F02C9
:1030B0009092FE018092FD018FE99FE00197F1F768
:1030C00000C00000D09311028FE99FE00197F1F753
:1030D00000C0000089E40E9463168FE99FE0019719
:1030E000F1F700C000008091FD019091FE0106966D
:1030F0009093FE018093FD01C09311028FE99FE040
:103100000197F1F700C0000086E791E09F938F934D
:103110000E94C71D8FE99FE00197F1F700C00000F2
:10312000F0921002E0920F020E948F158091FD0133
:103130009091FE01C0969093FE018093FD01D09284
:1031400011021F930F930E94C71D9FEF23ED80E391
:10315000915020408040E1F700C000008DB79EB73D
:1031600040960FB6F8949EBF0FBE8DBFDF91CF91F2
:103170001F910F91FF90EF90DF90BF90AF909F90C5
:103180008F9008959091C00095FFFCCF8093C6006A
:103190000895CF93DF93EC018991811103C0DF91F2
:1031A000CF9108950E94C218F7CFCF93DF93CDB788
:1031B000DEB72A970FB6F894DEBF0FBECDBF4AE048
:1031C000BE016F5F7F4F90E00E94A21DCE0101966D
:1031D0000E94C9182A960FB6F894DEBF0FBECDBF65
:1031E000DF91CF910895CF93DF93CDB7DEB72A97C4
:1031F0000FB6F894DEBF0FBECDBF4AE0BE016F5FD1
:103200007F4F0E94AD1DCE0101960E94C9182A96DB
:103210000FB6F894DEBF0FBECDBFDF91CF910895FA
:103220001092640082E08093B9008CE08093B80033
:1032300084E08093BC00089584EA8093BC00809170
:10324000BC0087FFFCCF089584E98093BC000895FB
:103250008093BB0084E88093BC008091BC0087FF12
:10326000FCCF089584EC8093BC008091BC0087FF64
:10327000FCCF8091BB00089584E88093BC008091CE
:10328000BC0087FFFCCF8091BB0008958091B900FE
:10329000887F089500D000D0CDB7DEB70E941E0809
:1032A00080EF90E09093ED018093EC011092D601B5
:1032B0001092D5011092F5011092F4018BE790E085
:1032C0009093EB018093EA0181E090E09093D80124
:1032D0008093D7011092D9011092B5011092FA0192
:1032E0001092C8011092DE011092DF011092E001ED
:1032F0001092E1011092A7011092A6011092C6014E
:103300001092C50185E99CE8A1E0B0E08093B80186
:103310009093B901A093BA01B093BB010E94101918
:103320008CE990E0909389008093880080918100DF
:1033300088608093810080916F00826080936F002D
:1033400080918100856080938100789484E00E9460
:103350004B088FE59AEE0197F1F700C0000010923C
:10336000080188E00E94C20685FF0BC08091D90148
:103370000E941209CB017093C3016093C2010E94A5
:103380004C0388E00E94C20684FF21C06091B50111
:103390008091D9010E94FC0969837A838B839C8385
:1033A00069817A818B819C810E94CA1A6093F6019F
:1033B0007093F7018093F8019093F9018091A60131
:1033C0009091A70101969093A7018093A60182E0B6
:1033D0000E94A016C4CF5058BB27AA270E94031AE8
:1033E0000C94541B0E94461B38F00E944D1B20F089
:1033F00039F49F3F19F426F40C94431B0EF4E09526
:10340000E7FB0C943D1BE92F0E94651B58F3BA178C
:10341000620773078407950720F079F4A6F50C94EA
:10342000871B0EF4E0950B2EBA2FA02D0B01B901CE
:1034300090010C01CA01A0011124FF27591B99F02A
:10344000593F50F4503E68F11A16F040A22F232F36
:10345000342F4427585FF3CF469537952795A79586
:10346000F0405395C9F77EF41F16BA0B620B730B2D
:10347000840BBAF09150A1F0FF0FBB1F661F771F9E
:10348000881FC2F70EC0BA0F621F731F841F48F453
:10349000879577956795B795F7959E3F08F0B0CFDC
:1034A0009395880F08F09927EE0F979587950895C3
:1034B0000E946C1A0C94541B0E944D1B58F00E94E1
:1034C000461B40F029F45F3F29F00C943D1B51113D
:1034D0000C94881B0C94431B0E94651B68F3992372
:1034E000B1F3552391F3951B550BBB27AA27621700
:1034F0007307840738F09F5F5F4F220F331F441F0D
:10350000AA1FA9F335D00E2E3AF0E0E832D0915040
:103510005040E695001CCAF72BD0FE2F29D0660F2D
:10352000771F881FBB1F261737074807AB07B0E870
:1035300009F0BB0B802DBF01FF2793585F4F3AF076
:103540009E3F510578F00C943D1B0C94881B5F3F07
:10355000E4F3983ED4F3869577956795B795F795FC
:103560009F5FC9F7880F911D9695879597F90895E4
:10357000E1E0660F771F881FBB1F62177307840780
:10358000BA0720F0621B730B840BBA0BEE1F88F78F
:10359000E09508950E94D11A6894B1110C94881B8B
:1035A00008950E946D1B88F09F5798F0B92F9927B6
:1035B000B751B0F0E1F0660F771F881F991F1AF01E
:1035C000BA95C9F714C0B13091F00E94871BB1E0E1
:1035D00008950C94871B672F782F8827B85F39F0E0
:1035E000B93FCCF3869577956795B395D9F73EF4B7
:1035F00090958095709561957F4F8F4F9F4F08955F
:10360000E89409C097FB3EF490958095709561957C
:103610007F4F8F4F9F4F9923A9F0F92F96E9BB2732
:103620009395F695879577956795B795F111F8CFAE
:10363000FAF4BB0F11F460FF1BC06F5F7F4F8F4F19
:103640009F4F16C0882311F096E911C0772321F00F
:103650009EE8872F762F05C0662371F096E8862FA7
:1036600070E060E02AF09A95660F771F881FDAF7FE
:10367000880F9695879597F9089597F99F6780E841
:1036800070E060E008959FEF80EC089500240A94B4
:103690001616170618060906089500240A9412162D
:1036A0001306140605060895092E0394000C11F460
:1036B000882352F0BB0F40F4BF2B11F460FF04C00D
:1036C0006F5F7F4F8F4F9F4F089557FD9058440F66
:1036D000551F59F05F3F71F04795880F97FB991F71
:1036E00061F09F3F79F0879508951216130614062E
:1036F000551FF2CF4695F1DF08C0161617061806BB
:10370000991FF1CF86957105610508940895E89495
:10371000BB2766277727CB0197F908950E94A11B45
:103720000C94541B0E94461B38F00E944D1B20F045
:10373000952311F00C943D1B0C94431B11240C9405
:10374000881B0E94651B70F3959FC1F3950F50E095
:10375000551F629FF001729FBB27F00DB11D639F43
:10376000AA27F00DB11DAA1F649F6627B00DA11DE9
:10377000661F829F2227B00DA11D621F739FB00D8F
:10378000A11D621F839FA00D611D221F749F3327FF
:10379000A00D611D231F849F600D211D822F762F98
:1037A0006A2F11249F5750409AF0F1F088234AF075
:1037B000EE0FFF1FBB1F661F771F881F91505040E1
:1037C000A9F79E3F510580F00C943D1B0C94881B7B
:1037D0005F3FE4F3983ED4F3869577956795B79568
:1037E000F795E7959F5FC1F7FE2B880F911D969582
:1037F000879597F90895FA01EE0FFF1F309621057E
:103800003105A1F16115710561F48038BFE39B07B3
:1038100049F168949038810561F08038BFEF9B07CB
:1038200041F099234AF5FF3FE1053105210519F1E2
:10383000E8940894E795D901AA2329F4AB2FBE2F69
:10384000F85FD0F310C0FF5F70F4A695E0F7F7398A
:1038500050F019F0FF3A38F49F779F930DD00F90F6
:1038600007FC9058089546F00C94431B60E070E00C
:1038700080E89FE308954FE79F775F934F933F93CF
:103880002F930E94F61C2F913F914F915F910E94C0
:103890008E1B0C94531C29F416F00C943D1B0C94B5
:1038A000871B0C94431B0E946D1BA8F39638A0F74E
:1038B00007F80F92E8942BE33AEA48EB5FE70E949F
:1038C000A41B0F920F920F924DB75EB70F920E94FA
:1038D0003E1DE8E6F0E00E94851C4F915F91EF915C
:1038E000FF91E595EE1FFF1F49F0FE57E068442762
:1038F000EE0F441FFA95E1F74195550B0E94B81C55
:103900000F9007FE0C94AC1C0895DF93CF931F9388
:103910000F93FF92EF92DF927B018C01689406C0B7
:10392000DA2EEF010E94A11BFE01E894A5912591DA
:10393000359145915591A6F3EF010E94031AFE01BE
:103940009701A801DA9469F7DF90EF90FF900F914B
:103950001F91CF91DF9108959B01AC0160E070E071
:1039600080E89FE30C94581A0C943D1B0C94721D34
:103970000E946D1BD8F39923C9F3940F511DA3F333
:103980009150504094F059F0882332F0660F771F21
:10399000881F91505040C1F79E3F51052CF7880F6A
:1039A000911D9695879597F908955F3FACF0983EE5
:1039B0009CF0BB27869577956795B79508F4B1601D
:1039C0009395C1F7BB0F58F711F460FFE8CF6F5F15
:1039D0007F4F8F4F9F4FE3CF0C94881B16F00C94B2
:1039E000721D0C94431B68940C943D1B0E946D1B2C
:1039F000A8F39923C1F3AEF3DF93CF931F930F93F3
:103A0000FF92C92FDD2788232AF02197660F771FA1
:103A1000881FDAF720E030E040E85FEB9FE3883969
:103A200020F0803E38F021968F770E94EC19E0E973
:103A3000F0E004C00E94EC19EDEBF0E00E94851C60
:103A40008B01BE01EC01FB2E6F5771097595771F35
:103A5000880B990B0E94021B28E132E741E35FE3E8
:103A60000E94A11BAF2D9801AE01FF900F911F91F5
:103A7000CF91DF910E94031A0C94541BFA01DC01D0
:103A8000AA0FBB1F9B01AC01BF5728F42227332785
:103A90004427507820C0B75190F4AB2F00244695AE
:103AA00037952795011CA395D2F3002071F0220FC2
:103AB000331F441FB395DAF30ED00C94EB19613029
:103AC0007105A0E88A07B94630F49B01AC0166276E
:103AD000772788279078309621F02083318342839E
:103AE000538308959F3F31F0915020F48795779547
:103AF0006795B795880F911D9695879597F90895C5
:103B0000A1E21A2EAA1BBB1BFD010DC0AA1FBB1FE1
:103B1000EE1FFF1FA217B307E407F50720F0A21B53
:103B2000B30BE40BF50B661F771F881F991F1A94C0
:103B300069F760957095809590959B01AC01BD01EA
:103B4000CF010895BB274A3031F4992322F4BDE216
:103B5000909581959F4F0C94AE1DBB27FB01552777
:103B6000AA27880F991FAA1FA41710F0A41B8395DA
:103B70005051B9F7A05DAA3308F0A95DA193009751
:103B800079F7B111B1931192CB010C94EA1FB0E017
:103B9000A0E0EDECFDE10C949820AE014B5F5F4F8F
:103BA000FA0161917191AF01809116029091170213
:103BB0000E94091EE2E00C94B4200F931F93CF9350
:103BC000DF93E0911602F0911702238110E000E0EC
:103BD00021FD0EC00FEF1FEFC801DF91CF911F91A4
:103BE0000F9108950995892B11F00FEF1FEFCE016A
:103BF000EC0189916091160270911702DB01189611
:103C0000ED91FC918111EECF8AE00995892B21F38A
:103C1000E1CFABE0B0E0EFE0FEE10C9488207C0166
:103C20003B018A01FC0117821682838181FFB9C1A1
:103C30009AE0292ECE0101965C01F7019381F301F0
:103C400093FD859193FF81913F01882309F446C13B
:103C5000853239F493FD859193FF81913F0185323F
:103C600029F4B70190E00E94FA1FE7CF912C412C74
:103C7000512CFFE1F51538F08B3209F188F48032D0
:103C800001F1833221F157FC3AC020ED280F2A3090
:103C900040F556FE1FC0929C200D1124922E06C0A6
:103CA0008D3291F0803379F7689450F8F30193FDE9
:103CB000859193FF81913F018111DBCF20C06894F2
:103CC00051F8689452F8F2CF689453F8EFCF6894A3
:103CD00054F8ECCF429C200D1124422E689455F8E4
:103CE000E5CF8E3229F456FCF9C0689456F8DECF41
:103CF0008C3619F4689457F8D9CF8836B9F2982FD2
:103D00009F7D95549330C0F08336A1F18337C1F184
:103D1000833509F05BC0F801C190D1908F01692D06
:103D200070E056FC02C06FEF7FEFC6010E94D41F07
:103D30004C01689457F80AC00C5F1F4F2FE329838A
:103D400088248394912C6501E89457F853FC04C0AF
:103D50004814190409F018F5342C8114910431F534
:103D6000332009F46ACFB70180E290E00E94FA1F85
:103D70003A94F6CFF801808189830E5F1F4FE0CF20
:103D8000F801C190D1908F01692D70E056FC02C0FE
:103D90006FEF7FEFC6010E94DF1F4C01D5CFB70147
:103DA00080E290E00E94FA1F4A94D2CFF60157FCBD
:103DB000859157FE81916F01B70190E00E94FA1F33
:103DC00031103A94F1E08F1A9108C7CF843619F078
:103DD000893609F074C0F80157FE6AC0619171918B
:103DE000819191918F01252D2F76D22E97FF09C0B9
:103DF00090958095709561957F4F8F4F9F4F6894F8
:103E0000D7F82AE030E0A5010E942A20C82ECA185F
:103E10008C2C5D2CD6FE0CC0E89450F8C91440F4EC
:103E2000D4FE05C0D2FC03C0FD2DFE7E5F2E892C82
:103E300054FE8FC0FE01EC0DF11D8081803309F02E
:103E400081C0252D297E522E852D8870382E53FC59
:103E50008FC050FE89C09C2C841418F44C0C942CF8
:103E6000981854FE8BC0B70180E390E00E94FA1FBF
:103E700052FE09C088E790E051FE02C088E590E05C
:103E8000B7010E94FA1FC91408F484C0CA94D12C47
:103E90009FEFC91AD90ACA0CDB1CF60182916F0187
:103EA000B70190E00E94FA1FAC14BD04B1F758CFDF
:103EB00061917191072E000C880B990B93CFD52C33
:103EC000E894D4F82AE030E0853739F1952D997FD0
:103ED000D92E8F3601F148F48835A9F0F701868193
:103EE00097812B96E2E10C94A420803749F0883723
:103EF000A9F7D4FE02C06894D2F820E130E00DC0EA
:103F00006894D4F8F6CF54FE03C0E92FE660DE2EA5
:103F100020E132E002C028E030E0F801D7FE0DC019
:103F200061917191819191918F01A5010E942A2047
:103F3000C82ECA18E894D7F86BCF6191719190E0C0
:103F400080E0F2CF52FC02C083947ECF83948394AE
:103F50007BCF852D867809F477CFF6CFB70180E245
:103F600090E00E94FA1F83948414C0F3312C79CF1F
:103F7000342C3818841408F474CFF8CF852D867843
:103F800009F481CF8BE251FE80E257FC8DE2B7014C
:103F900090E077CFB70180E390E00E94FA1F9A94F7
:103FA00072CF8FEF9FEF9DCFFC0105906150704065
:103FB0000110D8F7809590958E0F9F1F0895FC01F2
:103FC0006150704001900110D8F7809590958E0F48
:103FD0009F1F0895DC01FC01672F71917723E1F7A2
:103FE000329704C07C916D9370836291AE17BF07C6
:103FF000C8F308950F931F93CF93DF93182F092FC2
:10400000EB018B8181FD09C01FEF0FEF812F902FF6
:10401000DF91CF911F910F91089582FF14C02E81DF
:104020003F818C819D81281739073CF4E881F98113
:10403000CF0101969983888310838E819F81019699
:104040009F838E83E3CFE885F985812F0995892B9E
:10405000A1F3DACFFA01AA27283051F1203181F1FA
:10406000E8946F936E7F6E5F7F4F8F4F9F4FAF4F80
:10407000B1E03ED0B4E03CD0670F781F891F9A1F93
:10408000A11D680F791F8A1F911DA11D6A0F711D47
:10409000811D911DA11D20D009F468943F912AE053
:1040A000269F11243019305D3193DEF6CF0108953B
:1040B000462F4770405D4193B3E00FD0C9F7F6CF6C
:1040C000462F4F70405D4A3318F0495D31FD405234
:1040D000419302D0A9F7EACFB4E0A69597958795CA
:1040E00077956795BA95C9F70097610571050895A9
:1040F0009B01AC010A2E0694579547953795279555
:10410000BA95C9F7620F731F841F951FA01D0895EC
:104110002F923F924F925F926F927F928F929F92D7
:10412000AF92BF92CF92DF92EF92FF920F931F93C5
:10413000CF93DF93CDB7DEB7CA1BDB0B0FB6F89476
:10414000DEBF0FBECDBF09942A88398848885F84B6
:104150006E847D848C849B84AA84B984C884DF8027
:10416000EE80FD800C811B81AA81B981CE0FD11D0B
:104170000FB6F894DEBF0FBECDBFED010895F894E1
:02418000FFCF6F
:104182000100010001000100010000000200000026
:1041920000C41600000000F0004001F000400100E1
:1041A20000000200000000C41600000000506F73FF
:1041B2003A2025642076616C3A202564006D6F6494
:1041C20065202D2000636F6E7374616E7420766FAC
:1041D2006C74616765007365740030302E30307620
:1041E2000061637475616C0A0030302E303000302B
:0E41F200302E3030610061637475616C000026
:00000001FF
